:020000040800F2
:10000000A8080020191300089D0200089F0200089C
:10001000A3020008A7020008AB02000800000000CD
:10002000000000000000000000000000AF02000817
:10003000B102000800000000B3020008B502000889
:100040003313000833130008331300083313000878
:100050003313000833130008331300083313000868
:100060003313000833130008331300083313000858
:100070003313000833130008331300083313000848
:100080003313000833130008331300083313000838
:100090003313000833130008331300083313000828
:1000A0003313000833130008331300083313000818
:1000B000C333000833130008331300083313000858
:1000C00033130008331300083313000833130008F8
:1000D000331300088F12000833130008331300088D
:1000E00033130008331300083313000833130008D8
:1000F00033130008331300083313000833130008C8
:1001000033130008331300083313000833130008B7
:1001100033130008331300083313000833130008A7
:100120003313000833130008331300083313000897
:1001300000F002F800F06BF80AA090E8000C82448E
:100140008344AAF10107DA4501D100F060F8AFF26B
:10015000090EBAE80F0013F0010F18BFFB1A43F0A5
:10016000010318479C450000BC4500000A444FF0BD
:10017000000C10F8013B13F0070408BF10F8014B06
:100180001D1108BF10F8015B641E05D010F8016B4B
:10019000641E01F8016BF9D113F0080F1EBF10F8AF
:1001A000014BAD1C0C1B09D16D1E58BF01F801CBD2
:1001B000FAD505E014F8016B01F8016B6D1EF9D555
:1001C0009142D6D37047000000230024002500266A
:1001D000103A28BF78C1FBD8520728BF30C148BFAA
:1001E0000B607047642903F0C386752903F0C0864D
:1001F000782903F0F986632904F05480732904F008
:100200005980002070471FB51FBD10B510BD04F008
:1002100083F81146FFF7F7FF00F008F804F0A1F8A3
:1002200003B4FFF7F2FF03BC00F0D4FF1CB50024B9
:1002300000F068FF00F060FF4FF4E13000F0D8FFFD
:1002400000F00FFC00F0D6FC01201721112305223D
:10025000CDE900100146102000F0FEFC0D48416879
:100260004820884714E000F039FD0B488078A04210
:100270000ED00948807808494978074DCDE900102B
:100280002B786A792979E87800F0EFFA28468478A3
:10029000E9E700008C0000201E000020704700BF2E
:1002A000FEE700BFFEE700BFFEE700BFFEE77047C6
:1002B00070477047704700000CB500200190009017
:1002C0006B48006840F480306949086000BF6848A6
:1002D000006800F4003000900198401C01900098E4
:1002E00018B90198B0F5A06FF1D16148006810F419
:1002F000003F02D00120009001E000200090009813
:10030000012842D15B48006840F01000594908605C
:100310000846006820F0030008600846006840F0C6
:1003200002000860524840685149486008464068E9
:1003300048600846406840F480604860084640686D
:1003400020F47C1048600846406840F4E81048609B
:100350000846006840F08070086000BF44480068AC
:1003600010F0007FFAD04248406820F00300404976
:1003700048600846406840F00200486000BF3C48C2
:10038000406800F00C000828F9D10CBD10B5FFF74B
:1003900093FF10BD10B53648006840F001003449A5
:1003A00008600846406834490840314948600846BA
:1003B0000068324908402E4908600846006820F469
:1003C000802008600846406820F4FE0048604FF432
:1003D0001F008860FFF7DAFF4FF0006028490860CF
:1003E00010BD10B5002100200022214B5B6803F0F6
:1003F0000C0121B1042906D0082928D107E0214B9E
:10040000214C236027E01F4B1F4C236023E0184B37
:100410005B6803F47010164B5B6803F480320223B0
:1004200003EB904022B9194B4343174C23600DE076
:100430000F4B5B6813F4003F04D0144B4343124C42
:10044000236003E00F4B43430F4C236003E00D4B4D
:100450000D4C236000BF00BF054B5B68C3F3031363
:100460000B4CE15C084B1B68CB40074C236010BD74
:1004700000100240002002400000FFF8FFFFF6FEDF
:1004800008ED00E000127A000000002000093D00A5
:10049000040000201CB50121202001F0E1FA4FF4F6
:1004A0007040ADF8040010208DF8070001208DF891
:1004B000060001A9FE4801F01DF80121102001F0FD
:1004C000CFFA4FF4E070ADF8000010208DF8030073
:1004D00001208DF802006946F64801F00BF84FF450
:1004E0008071F44801F0B1F81CBD10B58021F148CD
:1004F00001F0ADF8012000F01EFE012000F01BFE0F
:1005000000BF4021EB4801F0A2F8C82000F013FE24
:100510004021E84801F099F8C82000F00CFEE448BA
:100520000830006810F0800FEBD14021E14801F065
:100530008EF8002010BD10B5FFF7D7FF10BD70B5C5
:1005400004460D46002644E04FF40041D84801F02F
:100550007EF84FF48041D64801F079F84FF400510D
:10056000D34801F074F84FF48051D14801F06FF88E
:1005700014F0100F04D04FF40041CD4801F065F89D
:1005800014F0200F04D04FF48041C94801F05DF809
:1005900014F0400F04D04FF40051C54801F055F855
:1005A00014F0800F04D04FF48051C14801F04DF891
:1005B000052000F0C0FD4021BE4801F046F80A20A9
:1005C00000F0B9FD4021BB4801F041F82007040EBE
:1005D000761C022EB8DB012D03D1052000F0ABFD07
:1005E00003E04FF4967000F0A6FD70BD10B5044610
:1005F0008021B04801F02BF8012000F09CFD022082
:1006000000F099FD4021AB4801F021F8012000F0F5
:1006100092FD022000F08FFD01212046FFF78FFFA1
:1006200010BD10B504468021A24801F010F8012049
:1006300000F081FD0A2000F07EFD40219D4801F080
:1006400006F80A2000F077FD022000F074FD012179
:100650002046FFF774FF0A2000F06DFD012000F036
:100660006AFD10BD10B504468021924800F0EDFFF0
:100670000A2000F060FD012000F05DFD40218D4862
:1006800000F0E5FF0A2000F056FD012000F053FDC8
:1006900000212046FFF753FF0A2000F04CFD012007
:1006A00000F049FD10BD10B5044644F08000FFF78E
:1006B000B8FF10BD70B505460C46012D04D144F0BD
:1006C0008000FFF7AEFF03E044F0C000FFF7A9FF92
:1006D00070BD10B504462046FFF7C4FF10BD70B5CD
:1006E00005460E46144631462846FFF7E3FF2046EE
:1006F000FFF7B8FF70BD70B50446002504E0605DEB
:10070000FFF7B0FF681CC5B2605D0028F7D170BD6F
:1007100070B505460E46144631462846FFF7CAFF17
:100720002046FFF7E8FF70BDF0B58DB004462746C0
:1007300000250BE00A20B4FBF0F100FB114003A9F7
:1007400041F825006D1C0A20B4FBF0F4002CF1D117
:10075000002609E0681E801B03A911F82000303034
:10076000C0B20DF80600761CAE42F3DB00200DF897
:1007700005002FB930208DF8000000208DF8010011
:100780006846FFF7B8FF0DB0F0BD70B505460E46E0
:10079000144631462846FFF78DFF2046FFF7C4FF79
:1007A00070BD2DE9FC4782460D46D14600BF0124AD
:1007B00015E0B9F1000F04D13F480078291B7054AF
:1007C00008E00A2099FBF0F100FB11903A49085C1F
:1007D000291B70540A2099FBF0F9601CC4B2AC428A
:1007E000E7DD2E2070554FF00009504603F0FBFD69
:1007F0000746884601241DE00022304B384641461A
:1008000003F004FECDE9000103F0BEFD81460A209D
:1008100099FBF0F100FB11902749085C29197054ED
:100820000022264B3846414603F0F0FD0746884635
:10083000601CC4B2082CDFDD00207119214448700F
:100840003046FFF758FFBDE8FC872DE9F04106462A
:100850000F4614461D4639463046FFF72BFF294602
:100860002046FFF79EFFBDE8F0812DE9F0470746DF
:100870000C4615461E46DDE908890120FFF7D1FE2A
:10088000052000F07BFC00210120FFF713FF0CA0E6
:10089000FFF731FF3846FFF747FF2D20FFF719FF1D
:1008A0002046FFF741FF2D20FFF713FF28460BE0FE
:1008B00000140140001001401400002000002440FA
:1008C000446174653A000000FFF72EFF0F210120FC
:1008D000FFF7F0FE2A20FFF7FCFE00210220FFF7C1
:1008E000E9FE80A0FFF707FF3046FFF71DFF3A2023
:1008F000FFF7EFFE4046FFF717FF3A20FFF7E9FE4C
:100900004846FFF711FF0F210220FFF7D3FE2A20F0
:10091000FFF7DFFEBDE8F0872DE9F04107460C4602
:1009200015461E4600210120FFF7C4FE6FA0FFF709
:10093000E2FE0F210120FFF7BDFE2A20FFF7C9FECE
:1009400002210846FFF7B6FE3846FFF7EDFE3A20D3
:10095000FFF7BFFE2046FFF7E7FE3A20FFF7B9FE9C
:100960002846FFF7E1FE3A20FFF7B3FE3046FFF7D7
:10097000DBFE0F210220FFF79DFE2A20FFF7A9FED4
:10098000BDE8F08110B5044600210120FFF792FE7A
:100990005AA0FFF7B0FE01210220FFF78BFE5B4853
:1009A000844207D306212046FFF7FBFE58A0FFF73D
:1009B000A2FE10E0B4F57A7F07D303212046FFF7AB
:1009C000F0FE54A0FFF797FE05E02046FFF7ACFECF
:1009D00051A0FFF790FE0E210220FFF76BFE4FA003
:1009E000FFF789FE10BD10B51820FFF71AFE10BDE5
:1009F00010B51C20FFF715FE10BD10B50120FFF744
:100A000010FE10BD10B50220FFF70BFE10BD10B593
:100A10000820FFF706FE10BD10B50C20FFF701FE01
:100A200010BD70B504460D460D20FFF7FAFD2946AE
:100A30002046FFF73FFE70BD10B50C20FFF7F1FD1B
:100A400010BD10B50820FFF7ECFD4FF4FA7000F070
:100A500095FB0C20FFF7E5FD4FF4FA7000F08EFBDC
:100A600010BD10B5FFF716FDC82000F087FB282049
:100A7000FFF7D7FD052000F081FB2820FFF7D1FD0F
:100A8000052000F07BFB2820FFF7CBFD052000F0C0
:100A900075FB2820FFF7C5FD2820FFF7C2FD2820A1
:100AA000FFF7BFFD2820FFF7BCFD2820FFF7B9FDA9
:100AB0000820FFF7B6FD052000F060FB0120FFF7DE
:100AC000B0FD052000F05AFB0620FFF7AAFD052027
:100AD00000F054FB0C20FFF7A4FD052000F04EFBB6
:100AE00010BD000054696D653A00000043757272D4
:100AF000656E742054696D653A000000437572722A
:100B0000656E7420467265713A00000040420F0025
:100B10004D487A004B487A00487A00004F4B00005D
:100B200030B501460846CC1701EB14742411A1EB33
:100B300004140A46CD1701EB15752D1105EB85053B
:100B400004EB4504E3B2184630BD01460A2291FB8E
:100B5000F2F302FB131391FBF2F243EA0212D0B25A
:100B6000704770B505460C4600F01EF9052000F0F0
:100B7000E2FAD02000F0CAF900F09EF9052000F05A
:100B8000DAFA284600F0C2F900F096F9052000F0E4
:100B9000D2FA204600F0BAF900F08EF9052000F0F4
:100BA000CAFA00F02FF970BD70B50446002500F0B8
:100BB000FBF8D02000F0AAF900F07EF9052000F043
:100BC000BAFA204600F0A2F900F076F9052000F00C
:100BD000B2FA00F0E9F8D12000F098F900F06CF9D1
:100BE000052000F0A8FA00F0C0F9054600F00AF967
:100BF000284670BD10B500F0BEF800210E20FFF7AA
:100C0000B0FF022000F0BAFA00210F20FFF7A9FF81
:100C1000022000F0B3FA10BD10B50620FFF7C4FFA4
:100C20005049C8700520FFF7BFFF4E4908710420E6
:100C3000FFF7BAFF4B4948710220FFF7B5FF49495A
:100C400008700120FFF7B0FF464948700020FFF709
:100C5000ABFF4449887010BD2DE9F04707460C46AC
:100C600015461E46DDE908894FF0000A3846FFF7B1
:100C70006CFF00F0FF0A51460620FFF772FF204686
:100C8000FFF763FF00F0FF0A51460520FFF769FFF9
:100C90002846FFF75AFF00F0FF0A51460420FFF7ED
:100CA00060FF3046FFF751FF00F0FF0A5146022077
:100CB000FFF757FF4046FFF748FF00F0FF0A514695
:100CC0000120FFF74EFF4846FFF73FFF00F0FF0A05
:100CD00051460020FFF745FFBDE8F08710B506201C
:100CE000FFF762FF1F49C870C878FFF719FF1D4959
:100CF000C8700520FFF758FF1A4908710879FFF7F7
:100D00000FFF184908710420FFF74EFF154948717D
:100D10004879FFF705FF134948710220FFF744FFA8
:100D2000104908700846007800F03F000870087805
:100D3000FFF7F6FE0B4908700120FFF735FF094960
:100D400048704878FFF7ECFE064948700020FFF72E
:100D50002BFF044988708878FFF7E2FE014988700C
:100D600010BD00001E000020642001E0411EC8B23A
:100D70000028FBD1704708B50121082000F070FE63
:100D80004FF44060ADF8000014208DF803000320FC
:100D90008DF802006946D64800F0ACFB4FF4406184
:100DA000D34800F052FC08BD00B54FF40060D049B4
:100DB0001031086040100860FFF7D6FFCC480830BB
:100DC000006808B9012000E0002010F4006F01D095
:100DD000002000BD4FF40060C54914310860FFF7E2
:100DE000C3FFC3480830006810F4006F01D0002032
:100DF000EFE74FF40060BE4914310860FFF7B4FF1D
:100E00000120E6E700B54FF48060B949143108606D
:100E1000FFF7AAFF4FF40060B54914310860FFF7EF
:100E2000A3FF4FF48060B24910310860FFF79CFFC8
:100E30004FF40060AE4910310860FFF795FF00BD28
:100E400000B54FF48060AA4914310860FFF78CFFA9
:100E50004FF40060A64914310860FFF785FF4FF496
:100E60008060A34910310860FFF77EFF4FF4806077
:100E70009F4914310860FFF777FF00BD00B54FF4BC
:100E800080609B4914310860FFF76EFF4FF40060EB
:100E9000974910310860FFF767FF4FF4806094496D
:100EA00010310860FFF760FF4FF480609049143103
:100EB0000860FFF759FF00BD00B54FF480608C4912
:100EC00014310860FFF750FF4FF40060884910317B
:100ED0000860FFF749FF4FF48060854910310860D2
:100EE000FFF742FF82480830006810F4006F06D018
:100EF0004FF480607E4914310860002000BD4FF43B
:100F000080607B49143108600120F7E700B5024694
:100F100008231FE04FF48060754914310860FFF723
:100F200023FF12F0800F05D04FF40060704910319C
:100F3000086004E04FF400606D4914310860500609
:100F4000020EFFF711FF4FF480606949103108600D
:100F5000FFF70AFF1800A3F10101CBB2DAD14FF479
:100F6000806063491431086000BD00B50823002289
:100F700018025F491031086017E05006020E4FF466
:100F800080605B4914310860FFF7EEFE4FF480602B
:100F9000574910310860FFF7E7FE554808300068F0
:100FA00010F4006F01D042F001021800A3F101011A
:100FB000CBB2E2D14FF480604D4914310860104645
:100FC00000BD2DE9F04105460C4617460026B04607
:100FD0002046E11704EB1161C1F307262046E11713
:100FE00004EB11610912A4EB012101F0FF08700666
:100FF000060E06F00F0646F0D0003E490870FFF7D7
:10100000D3FE10B90020BDE8F0813A480078FFF720
:101010007DFFFFF751FF18B9FFF7F4FE0020F2E75C
:101020004046FFF773FFFFF747FF05E02878FFF71B
:101030006DFFFFF741FF6D1C3800A7F101018FB272
:10104000F4D1FFF7DFFE0120DDE72DE9F041064690
:101050000C4615460027B8462046E11704EB1161FF
:10106000C1F307272046E11704EB11610912A4EB35
:10107000012101F0FF087806070E07F00F0747F07F
:10108000D0001C490870FFF78FFE10B90020BDE8A2
:10109000F08118480078FFF739FFFFF70DFF18B906
:1010A000FFF7B0FE0020F2E74046FFF72FFFFFF703
:1010B00003FFFFF779FE0F49097841F00100FFF7C0
:1010C00025FFFFF7F9FE0CE0FFF74FFF3070012D11
:1010D00002D1FFF7D3FE01E0FFF7B2FE761C681ED7
:1010E00085B2002DF0D1FFF78DFE0120CFE7000083
:1010F000000C01402500002010B54FF4A06000F066
:101100002BF910BD10B56FF0040000F075F92D48F3
:1011100000682D49B0FBF1F02C49087008460078B2
:1011200000EB4001C1EBC0104FF6FF7101EAC000B7
:101130002749088010BD0146244A12784A434FF0DF
:10114000E0235A6100229A611A46126942F00102B4
:101150001A6100BF4FF0E022106910F0010F02D0B9
:1011600010F4803FF6D04FF0E022126922F0010225
:101170004FF0E0231A6100229A6170470146144A39
:1011800012884A434FF0E0235A6100229A611A46BE
:10119000126942F001021A6100BF4FF0E0221069AB
:1011A00010F0010F02D010F4803FF6D04FF0E02293
:1011B000126922F001024FF0E0231A6100229A61C5
:1011C000704700000000002000127A002600002076
:1011D00028000020014600BF704700BF4A4A12881D
:1011E00012F0400FFAD0C2B2474B1B1D1A80704755
:1011F00010B586B00446012144F2040000F030FC32
:10120000414801F0A3FB4FF40070ADF81400032037
:101210008DF8160018208DF8170005A93B4800F03E
:1012200069F94FF48060ADF8140004208DF81700C0
:1012300005A9364800F05EF925208DF8000003204E
:101240008DF801008DF8020001208DF8030068463A
:1012500000F087F801940020ADF80800ADF80A000E
:10126000ADF80C00ADF810000C20ADF80E0001A98F
:10127000254801F0AEFB012240F22551224801F041
:1012800040FC0121204801F030FC06B010BD10B533
:1012900040F225511C4801F019FD10B31A4801F025
:1012A00095FCC4B21A48008810F4004F2BD118489E
:1012B000008810F4804F0CD00A2C03D00020144971
:1012C000088020E01248008840F40040104908805F
:1012D00019E00D2C06D10E48008840F480400C49DE
:1012E000088010E00A480088C0F30D0009490C543A
:1012F00007480088401C0649088008460088C7281F
:1013000001DD0020088010BD0038014000080140C8
:101310002C00002080010020094880470948004730
:10132000FEE7FEE7FEE7FEE7FEE7FEE7FEE7FEE795
:10133000FEE7FEE704480549054A064B70470000F2
:101340009503000831010008A8020020A808002029
:10135000A8040020A804002031490143314A11604B
:10136000704770B5002100230F22C4780CB32D4CB8
:10137000246804F4E064C4F5E064210AC1F10403C4
:10138000CA40447804FA03F18478144021430901E7
:10139000254C0678A155047804F01F050124AC40C3
:1013A00005786D114FF0E02606EB8505C5F8004184
:1013B00009E0047804F01F050124AC401B4D0678B9
:1013C000761145F8264070BD194A0A400243154B74
:1013D0001B1F1A60704739B1124A121D126802436E
:1013E000104B1B1D1A6006E00E4A121D1268824344
:1013F0000C4B1B1D1A607047042808D14FF0E021E8
:10140000096941F004014FF0E022116107E04FF05B
:10141000E021096921F004014FF0E02211617047D9
:101420000000FA050CED00E000E400E080E100E0DF
:1014300080FFFF1F10B50446CA48844208D101212D
:10144000042000F027FB0021042000F023FB46E0ED
:10145000C548844208D10121082000F01BFB00216F
:10146000082000F017FB3AE0C048844208D101216F
:10147000102000F00FFB0021102000F00BFB2EE0ED
:10148000BB48844208D10121202000F003FB002149
:10149000202000F0FFFA22E0B648844208D1012162
:1014A000402000F0F7FA0021402000F0F3FA16E0A7
:1014B000B148844208D10121802000F0EBFA0021DC
:1014C000802000F0E7FA0AE0AC48844207D101210D
:1014D000801500F0DFFA0021A01500F0DBFA10BD46
:1014E00010B50121084600F0D5FA0021012000F0D6
:1014F000D1FA10BD2DE9F04102460025002600205A
:1015000000230024002791F803C00CF00F0591F888
:1015100003C01CF0100F03D091F802C04CEA05057F
:1015200091F800C0BCF1000F31D0146800202BE00E
:101530004FF0010C0CFA00F3B1F800C00CEA0306FE
:101540009E4220D183004FF00F0C0CFA03F7BC43EE
:1015500005FA03FC4CEA040491F803C0BCF1280F1F
:1015600006D14FF0010C0CFA00FCC2F814C00AE0DE
:1015700091F803C0BCF1480F05D14FF0010C0CFAF3
:1015800000FCC2F810C0401C0828D1D31460B1F888
:1015900000C0BCF1FF0F34DD546800202EE000F1E4
:1015A000080C4FF0010808FA0CF3B1F800C00CEA7F
:1015B00003069E4221D183004FF00F0C0CFA03F773
:1015C000BC4305FA03FC4CEA040491F803C0BCF1E7
:1015D000280F05D100F1080C08FA0CF8C2F81480A5
:1015E00091F803C0BCF1480F07D100F1080C4FF08F
:1015F000010808FA0CF8C2F81080401C0828CED365
:101600005460BDE8F0814FF6FF71018002218170C6
:101610000421C17070470246002093680B4201D03C
:10162000012000E0002070470146886880B27047C2
:1016300002460020D3680B4201D0012000E00020C8
:1016400070470146C86880B27047016170474161C8
:1016500070470AB1016100E041617047C1607047A5
:101660004FF480320A4382618161826182698269BA
:10167000704702460020424B18684FF680731840AE
:1016800040EA021008433E4B186070473D49C8616C
:101690007047F0B50A46002300240021002500F021
:1016A0000046B6F1004F02D1354EF16901E0344EEB
:1016B0007168C0F3034583B200F44016B6F5401FCD
:1016C00008D121F070612E4E766826F070662C4F9E
:1016D0007E6012E000F48016B6F5801F06D1032666
:1016E00006FA05F4A14341F0706106E0460D3601AB
:1016F00003FA06F6B14341F0706122B1460D36019E
:1017000003FA06F6314300F00046B6F1004F02D16D
:101710001B4EF16101E01A4E7160F0BD30B5002240
:101720008B071C0F0F2303FA04F2154B08338C10A0
:1017300053F824309343124C08348D1044F825306C
:1017400023468C1053F824308C07240F00FA04F43D
:1017500023430B4C08348D1044F8253030BD0A4922
:101760000860704700080140000C01400010014073
:101770000014014000180140001C014000200140FD
:101780000000014000002042DC002042DD480068EB
:1017900040F00100DB49086008464068DA4908402B
:1017A000D849486008460068D8490840D5490860CB
:1017B0000846006820F4802008600846406820F44D
:1017C000FE0048604FF41F0088607047CD490968EB
:1017D00021F48031CB4A11601146096821F480213F
:1017E0001160B0F5803F03D0B0F5802F0ED106E038
:1017F000C449096841F48031C24A116007E0C14917
:10180000096841F4A021BF4A116000E000BF00BF99
:10181000704710B501460022002300204A11012A1A
:1018200002D1B84C236806E0022A02D1B54C236AE3
:1018300001E0B44C636A01F01F02012494401C4291
:1018400001D0012000E0002010BD38B5002000903C
:101850000024002500BF3120FFF7DBFF054600987C
:10186000401C00900098B0F5A06F01D0002DF2D080
:101870003120FFF7CEFF08B1012400E0002420460C
:1018800038BD014600209F4A106820F0F80040EA69
:10189000C100106070479E490860704702460020F2
:1018A000984B586820F47C1042EA01031843954B8A
:1018B0005860704796490866704701460020914A73
:1018C000506820F003000843506070478D4840681E
:1018D00000F00C007047014600208A4A506820F052
:1018E000F00008435060704701460020854A506868
:1018F00020F4E06008435060704701460020814AB0
:10190000506820F4605040EAC1005060704729B12F
:101910007C4A527A02437B4B5A7204E0794A527AEB
:101920008243784B5A7270477A4908607047014683
:101930000020744A506820F44040084350607047CB
:101940000021754A11706F4A82F82010012802D0D8
:10195000042808D103E001216F4A117004E0052139
:101960006D4A117000E000BF00BF70476B4908600E
:1019700070476449096A0143624A116270476749C6
:1019800044390860704730B500210022002400234C
:101990005C4D6D6805F00C0121B1042905D00829C2
:1019A00023D105E05E4D056022E05D4D05601FE03E
:1019B000544D6D6805F47012524D6D6805F4803415
:1019C000022505EB92421CB9564D554305600BE0CC
:1019D0004C4D6D6815F4003F03D0524D55430560E2
:1019E00002E04F4D5543056002E04D4D056000BFDC
:1019F00000BF444D6D6805F0F00109094A4D6B5C6C
:101A00000568DD4045603F4D6D6805F4E061090AF9
:101A1000454D6B5C4568DD4085603A4D6D6805F469
:101A20006051C90A404D6B5C4568DD40C560354D6D
:101A30006D6805F44041890B3C4D6B5CC568B5FB96
:101A4000F3F5056130BD29B12E4A526902432D4B91
:101A50005A6104E02B4A526982432A4B5A6170470B
:101A600029B1284A92690243264B9A6104E0254A2B
:101A700092698243234B9A61704729B1214AD26906
:101A80000243204BDA6104E01E4AD26982431D4BB7
:101A9000DA61704729B11B4AD2680243194BDA60F8
:101AA00004E0184AD2688243164BDA60704729B1C5
:101AB000144A12690243134B1A6104E0114A126975
:101AC0008243104B1A6170471449403908607047CF
:101AD0000F49C86470470B49C87170470948406A8C
:101AE00040F0807007494862704701460020054A6F
:101AF00092680A4201D0012000E0002070470149AD
:101B000088727047001002400000FFF8FFFFF6FEE9
:101B100000004242D800424220100240800442426B
:101B200000127A0000093D0034000020440000202B
:101B300010B50446FE48844208D10121C014FFF7C5
:101B4000A9FF0021E014FFF7A5FFC4E0B4F1804F26
:101B500008D101210846FFF7AAFF00210120FFF765
:101B6000A6FFB8E0F348844208D101210220FFF724
:101B70009EFF00210220FFF79AFFACE0EE4884426E
:101B800008D101210420FFF792FF00210420FFF774
:101B90008EFFA0E0E948844208D101210820FFF728
:101BA00086FF00210820FFF782FF94E0E44884428A
:101BB00008D101211020FFF77AFF00211020FFF744
:101BC00076FF88E0DF48844208D101212020FFF71A
:101BD0006EFF00212020FFF76AFF7CE0DA48844294
:101BE00008D101214014FFF755FF00216014FFF7D1
:101BF00051FF70E0D548844209D10121C804FFF7A4
:101C000049FF00214FF40020FFF744FF63E0D04874
:101C1000844209D101210805FFF73CFF00214FF460
:101C20008010FFF737FF56E0CA48844209D10121EE
:101C30004805FFF72FFF00214FF40010FFF72AFFA0
:101C400049E0C548844208D101214020FFF72FFF19
:101C500000214020FFF72BFF3DE0C048844208D11F
:101C600001218020FFF723FF00218020FFF71FFFC5
:101C700031E0BB48844208D101218015FFF717FFEE
:101C80000021A015FFF713FF25E0B648844209D1D3
:101C900001210804FFF7FEFE00214FF48030FFF71A
:101CA000F9FE18E0B048844209D101214804FFF749
:101CB000F1FE00214FF40030FFF7ECFE0BE0AB48E3
:101CC000844208D101218804FFF7E4FE00214FF48B
:101CD0008020FFF7DFFE10BD00220288944B98425F
:101CE0000ED0994B98420BD0B0F1804F08D0914B59
:101CF000984205D0904B984202D0904B984204D124
:101D00004FF68F731A404B881A438D4B984207D079
:101D10008C4B984204D04FF6FF431A40CB881A43AD
:101D200002808B8883850B880385814B98420BD07A
:101D3000854B984208D08B4B984205D08A4B9842ED
:101D400002D08A4B984201D10B7A03860123838209
:101D5000704770B5002400220023058C4FF6FE76F4
:101D600035400584028C8388048B4FF68F752C4098
:101D7000B51E2C400D882C43751E2A400D892A4320
:101D80004D882A436A4DA8420BD06F4DA84208D017
:101D9000744DA84205D0744DA84202D0734DA8429C
:101DA00013D14FF6F7752A404D892A434FF6FB753C
:101DB0002A408D882A434FF6FF652B404FF6FF558A
:101DC0002B408D892B43CD892B4383800483CD8881
:101DD0008586028470BD70B5002400220023058C26
:101DE0004FF6EF7635400584028C8388048B48F6E5
:101DF000FF752C404FF6FF452C400D884FF6FF76BF
:101E000006EA05252C434FF6DF752A400D8906EAC0
:101E100005152A434D8806EA05152A43444DA84274
:101E200002D0494DA8421DD14FF67F752A404D89F9
:101E30004FF6FF7606EA05152A434FF6BF752A408E
:101E40008D8806EA05152A434FF6FF352B404FF2E1
:101E5000FF752B408D8906EA85052B43CD8906EA5F
:101E600085052B4383800483CD880587028470BD5C
:101E700070B5002400220023058C4FF6FF66354024
:101E80000584028C8388848B4FF68F752C404FF627
:101E9000FC752C400D882C434FF6FF552A400D89C8
:101EA0004FF6FF7606EA05252A434D8806EA052502
:101EB0002A431F4DA84202D0234DA8421DD14FF204
:101EC000FF752A404D894FF6FF7606EA05252A431D
:101ED0004FF6FF352A408D8806EA05252A434EF63F
:101EE000FF752B404DF6FF752B408D8906EA0515D1
:101EF0002B43CD8906EA05152B4383808483CD8847
:101F00008587028470BD70B5002200230024058CF3
:101F10004EF6FF7635400584038C8488828B48F624
:101F2000FF752A404FF6FF452A400D8820E000004B
:101F3000002C01400004004000080040000C00405C
:101F4000001000400014004000340140004C0140EB
:101F5000005001400054014000180040001C0040A7
:101F60000020004000400140004401400048014082
:101F70004FF6FF7606EA05252A434DF6FF752B40FE
:101F80000D8906EA05352B434D8806EA05352B43B6
:101F9000FA4DA84202D0FA4DA84208D14BF6FF757F
:101FA0002C408D894FF6FF7606EA85152C438480F8
:101FB0008283CD88A0F84050038470BD828B4FF29D
:101FC000FF331A408283828B4FF6FF7303EA0123AB
:101FD0001A4382837047F0B50C4615460022002153
:101FE0000026078C4EF6FF7C07EA0C070784828BDD
:101FF000018C4FF6FF7707EA043640F6FF473A4078
:102000004FF6FF7707EA05273A434FF6FF7707EACF
:1020100003373A43D94FB8420ED0D94FB8420BD00C
:10202000B0F1804F08D0D74FB84205D0D64FB84254
:1020300002D0D64FB84206D14DF6FF77394046F46C
:102040008057394305E047F6FF57394044F480573D
:10205000394382830184F0BD828B4FF6F3731A40BB
:102060008283828B0A4382837047F0B50C46154603
:10207000002200210026078C4FF6FF6C07EA0C07B0
:102080000784828B018C4FF6FF7707EA04264FF610
:102090000C773A404FF6FF7707EA03172F433A438E
:1020A000B64FB8420ED0B64FB8420BD0B0F1804F09
:1020B00008D0B44FB84205D0B34FB84202D0B34FA6
:1020C000B84206D14FF6FF57394046F4807739437E
:1020D00005E04FF2FF57394044F48077394382835B
:1020E0000184F0BD028B4FF2FF331A400283028B52
:1020F0004FF6FF7303EA01231A4302837047F0B5DA
:102100000C461546002200210026078C4FF6EF7C76
:1021100007EA0C070784028B018C4FF6FF7707EA6A
:10212000041640F6FF473A404FF6FF7707EA0337B9
:102130003A434FF6FF7707EA05273A438F4FB842F5
:102140000ED08F4FB8420BD0B0F1804F08D08D4FDA
:10215000B84205D08C4FB84202D08C4FB84206D15D
:102160004FF6DF77394046F01007394305E04FF668
:102170005F77394044F01007394302830184F0BD92
:10218000028B4FF6F3731A400283028B0A430283D9
:102190007047F0B50C46154600220021068C4FF61C
:1021A000FE773E400684028B018C4FF60C7632405F
:1021B0007E1C06EA03162E433243704EB0420ED008
:1021C0006F4EB0420BD0B0F1804F08D06D4EB04290
:1021D00005D06D4EB04202D06C4EB04206D14FF6E3
:1021E000FD76314044F00106314305E04FF6F576C7
:1021F000314044F00106314302830184F0BD70B5E3
:1022000005460C465D4885420ED05D4885420BD0A0
:10221000B5F1804F08D05B48854205D05A488542C9
:1022200002D05A48854200D100E000BF208850B952
:102230002389A28861882846FFF7ABFFE1882846FA
:10224000FFF79EFF25E0208804280AD12389A28871
:1022500061882846FFF753FFE1882846FFF742FFD1
:1022600017E0208808280AD12389A2886188284697
:10227000FFF7FBFEE1882846FFF7EEFE09E0238921
:10228000A28861882846FFF7A6FEE1882846FFF766
:1022900095FE70BD2DE9F04105460C46002601274C
:1022A000608808B9022600E00026A088012801D134
:1022B000022700E001272088A0B92389A28861882D
:1022C0002846FFF766FFE1882846FFF759FF238974
:1022D0003A4631462846FFF712FFE1882846FFF7C5
:1022E00001FF13E02389A28861882846FFF707FFD2
:1022F000E1882846FFF7F6FE23893A46314628460C
:10230000FFF747FFE1882846FFF73AFFBDE8F08175
:102310000A884B881A438B881A43CB881A430B8947
:102320001A434B891A438B891A43A0F844207047FB
:102330004FF6FF71818000210180C18041800172D0
:1023400070470021018041808180C18001814181ED
:102350008181C181704700210180418001218180FC
:102360000021C1800181704700210180418081806E
:10237000C18001814181818170470000002C0140B2
:10238000003401400004004000080040000C004000
:1023900021B1028842F00102028004E002884FF677
:1023A000FE731A400280704731B1B0F8442042F405
:1023B0000042A0F8442005E0B0F84420C2F30E0229
:1023C000A0F8442070471AB183890B43838102E04F
:1023D00083898B43838170478182704741EA02037E
:1023E000A0F8483070471AB183890B43838102E01B
:1023F00083898B438381704701894FF6F8721140BE
:10240000018170470A46002101894FF68F731940F8
:1024100011430181704730B504460D4629462046D8
:10242000FFF7F0FF208940F00700208130BD2DE943
:10243000F04104460D4616461F46602D06D13B4628
:10244000012231462046FFF75AFE05E03B460122B5
:1024500031462046FFF79DFE29462046FFF7D2FF72
:10246000208940F007002081BDE8F08130B50C469E
:1024700000210189C9B24FF6FF7505EA032515430E
:1024800025432943018130BD2DE9F04105460E4623
:1024900017469846002443463A4631462846FFF7F9
:1024A000E5FF2C894FF6F870044044F007044FF61E
:1024B0008F70044044F070042C81BDE8F081F0B5C9
:1024C00004460D4616461F463B46324629462046E0
:1024D000FFF7CCFF208940F480402081F0BD0185CA
:1024E000828270470A46002101884FF68F73194097
:1024F000114301807047F0B50C4615461E46002179
:10250000002200230189028B038C4FF6F8773940B3
:1025100021434FF6FC473A4040F201173A434FF649
:10252000DD773B404FF6FF7707EA06172F433B4323
:10253000018102830384F0BD0A460021018B4FF61E
:102540008F7319401143018370470A460021018BA4
:1025500048F6FF7319404FF6FF7303EA022319434D
:10256000018370470A460021818B4FF68F73194013
:102570001143818370470A460021818B48F6FF731F
:1025800019404FF6FF7303EA022319438183704712
:1025900021B1028842F08002028004E002884FF6F6
:1025A0007F731A400280704721B1828842F0040292
:1025B000828004E082884FF6FB731A408280704765
:1025C00021B1828842F00802828004E082884FF6BE
:1025D000F7731A408280704721B1828842F001026D
:1025E000828004E082884FF6FE731A408280704732
:1025F0000A460021018B4FF6F773194011430183FE
:1026000070470A460021018B4FF2FF7319404FF6C5
:10261000FF7303EA02231943018370470A4600212E
:10262000818B4FF6F77319401143818370470A4637
:102630000021818B4FF2FF7319404FF6FF7303EABD
:1026400002231943818370470A460021018B4FF60C
:10265000FB7319401143018370470A460021018B27
:102660004FF6FF3319404FF6FF7303EA0223194375
:10267000018370470A460021818B4FF6FB73194096
:102680001143818370470A460021818B4FF6FF3347
:1026900019404FF6FF7303EA022319438183704701
:1026A0000A460021018B4FF67F73194011430183C5
:1026B00070470A460021018BC1F30E014FF6FF73EC
:1026C00003EA02231943018370470A460021818BE4
:1026D0004FF67F7319401143818370470A460021EA
:1026E000818BC1F30E014FF6FF7303EA02231943F6
:1026F000818370470A460021018C4FF6FD73194013
:102700001143018470470A460021018C4FF6F7738C
:1027100019401143018470470A460021018C4FF68D
:10272000DF7319404FF6FF7303EA02131943018464
:1027300070470A460021018C4FF67F7319404FF60F
:10274000FF7303EA02131943018470470A4600210C
:10275000018C4FF6FF5319404FF6FF7303EA022333
:102760001943018470470A460021018C4FF2FF7320
:1027700019404FF6FF7303EA02231943018470479F
:102780000A460021018C4DF6FF7319404FF6FF7386
:1027900003EA023319430184704730B50023012452
:1027A0008C40A3B2048C9C430484048C02FA01F58F
:1027B000ADB22C43048430BD30B5002304248C40DA
:1027C000A3B2048C9C430484048C02FA01F5ADB2DC
:1027D0002C43048430BD70B5034600200024184605
:1027E000183001258D40ACB21D8CA5431D8409B164
:1027F000082909D100EB6100056825F07005056026
:102800000568154305600EE00D1FC5F34E0528440D
:10281000056825F4E045056005684FF6FF7606EA91
:1028200002263543056070BD21B1028842F00202E4
:10283000028004E002884FF6FD731A400280704760
:1028400021B1028842F00402028004E002884FF6BF
:10285000FB731A400280704721B1828842F08002E7
:10286000828004E082884FF67F731A40828070472E
:1028700002884FF6F7731A40028002880A430280EA
:10288000704782884FF68F731A40828082880A438D
:102890008280704702894FF6F8731A4002810289DC
:1028A0000A430281704702894FF67F731A40028102
:1028B00002890A430281704781847047818570478D
:1028C000818670470187704781877047A0F8401064
:1028D000704702884FF6FF431A40028002880A437D
:1028E000028070470146888E70470146088F704706
:1028F0000146888F70470146B1F840007047014695
:10290000888C70470146088D704702460020138A64
:102910000B4201D0012000E000207047CA43028230
:10292000704730B50246002000230024158A05EACE
:102930000103958905EA010413B10CB1012000E0FF
:10294000002030BDCA4302827047000010B5044623
:10295000FB48844209D101218803FFF79BF800213D
:102960004FF48040FFF796F832E0F648844209D1F0
:1029700001214804FFF79BF800214FF40030FFF7D6
:1029800096F825E0F048844209D101218804FFF738
:102990008EF800214FF48020FFF789F818E0EB480B
:1029A000844209D10121C804FFF781F800214FF4C6
:1029B0000020FFF77CF80BE0E548844208D10121B4
:1029C0000805FFF774F800214FF48010FFF76FF847
:1029D00010BD2DE9F04786B005460E460024A246FC
:1029E00000BFA1460027B08900B100BF2F462C8A46
:1029F0004CF6FF700440F08804432C82AC894EF6FC
:102A0000F3100440B08831890843718908430443B6
:102A1000AC81AC8A4FF6FF400440B0890443AC82DD
:102A200001A8FEF7B0FFC648874202D1DDF810A02A
:102A300001E0DDF80CA0A88910F4004F08D00AEBE3
:102A4000CA0000EB0A1031684900B0FBF1F807E05A
:102A50000AEBCA0000EB0A1031688900B0FBF1F8FC
:102A60006420B8FBF0F004012009642101FB108907
:102A7000A88910F4004F08D0322000EBC900B0FB49
:102A8000F1F000F00700044308E0322000EB0910E9
:102A90006421B0FBF1F000F00F0004432C8106B07C
:102AA000BDE8F0874FF41651016000218180C1809C
:102AB00001810C21418100218181704710B50246BE
:102AC0000020108A4FF2FF0318400B884C882343E4
:102AD0008C882343CC8823431843108210BD0021E7
:102AE000018041808180C180704721B1828942F498
:102AF0000052828104E082894DF6FF731A40828180
:102B00007047F0B503460024002600250020A1F5FB
:102B100010676A3F00D100BF1846C1F3421401F0AC
:102B20001F06012707FA06F5012C01D10C3004E03D
:102B3000022C01D1103000E014301AB107682F4385
:102B4000076002E00768AF430760F0BD1AB1838AEF
:102B50000B43838202E0838A8B4383827047028A1D
:102B60004FF6F0731A400282028A0A4302827047CB
:102B700082894FF2FF731A40828182890A438281DF
:102B8000704721B1828942F00202828104E0828989
:102B90004FF6FD731A4082817047028A4FF6DF7349
:102BA0001A400282028A0A430282704721B1028AD5
:102BB00042F48042028204E0028A4BF6FF731A401C
:102BC00002827047C1F308028280704701468888FC
:102BD000C0F308007047818941F00101818170478D
:102BE000028BD2B20283028B42EA01220283704737
:102BF000028B02F47F420283028B0A4302837047F6
:102C000021B1828A42F02002828204E0828A4FF659
:102C1000DF731A408282704721B1828A42F010022B
:102C2000828204E0828A4FF6EF731A4082827047F4
:102C300021B1828A42F00802828204E0828A4FF641
:102C4000F7731A408282704721B1828942F40042B0
:102C5000828103E08289C2F30E028281704721B132
:102C6000828A42F40062828204E0828A4FF2FF7319
:102C70001A4082827047828A4FF6FB731A40828222
:102C8000828A0A438282704721B1828A42F002021C
:102C9000828204E0828A4FF6FD731A408282704776
:102CA00002460020B1F5007F00D100BF13880B421F
:102CB00001D0012000E00020704701F40072B2F55D
:102CC000007F00D100BFCA430280704770B5024642
:102CD0000024002300250020A1F510666A3E00D1E3
:102CE00000BFC1F3421501F01F03012606FA03F3EA
:102CF000012D02D19689334006E0022D02D1168AB9
:102D0000334001E0968A33400C12012606FA04F49F
:102D10001688344013B10CB1012000E0002070BDD2
:102D200010B500220023A1F510646A3C00D100BF59
:102D30000A1201249440A3B2DC43048010BD0000B9
:102D4000003801400044004000480040004C004072
:102D50000050004010B58CB004461E230BAA03A9F6
:102D6000204600F0A9FE0090009810B101200CB0A0
:102D700010BD9DF82C00044400200B900EE040484C
:102D80009DF82C2050F8221003A800F0FDFD00B99A
:102D900008E09DF82C00401CC0B20B909DF82C0060
:102DA0000728ECD300BF9DF82C00072863D2DFE88A
:102DB00000F004053C5E6564630000BF31A001F0D3
:102DC00079F831A001F076F83FA001F073F84EA039
:102DD00001F070F85CA001F06DF86BA001F06AF8EA
:102DE00079A001F067F886A001F064F88BA001F0EB
:102DF00061F890A001F05EF894A001F05BF899A052
:102E000001F058F89EA001F055F8A4A001F052F886
:102E1000B0A001F04FF8BDA001F04CF8C8A001F03F
:102E200049F8D4A001F046F89AE216A001F042F861
:102E3000E0A001F03FF800200B900EE0ED480068A4
:102E40009DF82C2000EBC2004168EBA001F032F8A5
:102E50009DF82C00401CC0B20B90E648007D9DF808
:102E60002C108842EADC07A001F024F878E205A0E3
:102E700001F020F8C4E171E245E219E2ECE1000062
:102E8000480000200D0A00002D2D2D2D2D2D2D2D5B
:102E90002D2D2D2D2D2D2D2D2D2D2D2D2D2D2D2D62
:102EA00055534D4152542056332E312D2D2D2D2D5D
:102EB0002D2D2D2D2D2D2D2D2D2D2D2D2D2D2D2D42
:102EC0002D2D2D200D0A00002020202055534D418E
:102ED0005254CAC7D3C9414C49454E54454BBFAA69
:102EE000B7A2B5C4D2BBB8F6C1E9C7C9B5C4B4AEC0
:102EF000BFDAB5F7CAD4BBA5BDBBD7E9BCFE2CCDA4
:102F0000A8B9FD200D0A0000CBFC2CC4E3BFC9D238
:102F1000D4CDA8B9FDB4AEBFDAD6FACAD6B5F7D3C8
:102F2000C3B3CCD0F2C0EFC3E6B5C4C8CEBACEBAF4
:102F3000AFCAFD2CB2A2D6B4D0D02ED2F2B4CB2CD4
:102F4000C4E3BFC90D0A0000D2D4CBE6D2E2B8FC7C
:102F5000B8C4BAAFCAFDB5C4CAE4C8EBB2CECAFDA4
:102F600028D6A7B3D6CAFDD7D62831302F3136BDE3
:102F7000F8D6C629A1A2D7D6B7FBB4AEA1A2BAAFE4
:102F8000CAFDC8EB0D0A0000BFDAB5D8D6B7B5C880
:102F9000D7F7CEAAB2CECAFD292CB5A5B8F6BAAFDE
:102FA000CAFDD7EEB6E0D6A7B3D63130B8F6CAE43C
:102FB000C8EBB2CECAFD2CB2A2D6A7B3D6BAAFCA5E
:102FC000FDB7B5200D0A0000BBD8D6B5CFD4CABE18
:102FD0002ED0C2D4F6B2CECAFDCFD4CABEBDF8D66A
:102FE000C6C9E8D6C3B9A6C4DC2CD0C2D4F6BDF895
:102FF000D6C6D7AABBBBB9A6C4DC2E0D0A000000FA
:10300000BCBCCAF5D6A7B3D63A7777772E6F706572
:103010006E6564762E636F6D0D0A000055534D4149
:103020005254D3D037B8F6CFB5CDB3C3FCC1EE3AC6
:103030000D0A00003F3A202020202020BBF1C8A12B
:10304000B0EFD6FAD0C5CFA20D0A000068656C704B
:103050003A202020BBF1C8A1B0EFD6FAD0C5CFA24C
:103060000D0A00006C6973743A202020BFC9D3C3D5
:10307000B5C4BAAFCAFDC1D0B1ED0D0A0A00000057
:1030800069643A2020202020BFC9D3C3BAAFCAFD4B
:10309000B5C44944C1D0B1ED0D0A0A006865783A5B
:1030A00020202020B2CECAFD3136BDF8D6C6CFD4FE
:1030B000CABE2CBAF3B8FABFD5B8F12BCAFDD7D621
:1030C000BCB4D6B4D0D0BDF8D6C6D7AABBBB0D0A07
:1030D0000A0000006465633A20202020B2CECAFDB9
:1030E0003130BDF8D6C6CFD4CABE2CBAF3B8FABFB9
:1030F000D5B8F12BCAFDD7D6BCB4D6B4D0D0BDF864
:10310000D6C6D7AABBBB0D0A0A00000072756E7442
:10311000696D653A312CBFAAC6F4BAAFCAFDD4CBEB
:10312000D0D0BCC6CAB13B302CB9D8B1D5BAAFCA21
:10313000FDD4CBD0D0BCC6CAB13B0D0A0A000000FA
:10314000C7EBB0B4D5D5B3CCD0F2B1E0D0B4B8F1C0
:10315000CABDCAE4C8EBBAAFCAFDC3FBBCB0B2CEAD
:10316000CAFDB2A2D2D4BBD8B3B5BCFCBDE1CAF88B
:103170002E0D0A002D2D2D2D2D2D2D2D2D2D2D2DEE
:103180002D2D2D2D2D2D2D2D2D2D2D2D2D2D414C3C
:1031900049454E54454B2D2D2D2D2D2D2D2D2D2DAD
:1031A0002D2D2D2D2D2D2D2D2D2D2D2D2D2D2D205C
:1031B0000D0A00002D2D2D2D2D2D2D2D2D2D2D2DDC
:1031C0002D2D2D2D2D2D2D2D2D2D2D2D2DBAAFCA83
:1031D000FDC7E5B5A52D2D2D2D2D2D2D2D2D2D2DFD
:1031E0002D2D2D2D2D2D2D2D2D2D2D2D2D2D2D2D0F
:1031F000200D0A008C00002025730D0A000000003D
:10320000EFA000F057FE00200B901AE0FC4909687F
:103210009DF82C2001EBC20101AB02AA486803A96A
:1032200000F070FCF64800689DF82C1050F8312032
:1032300003A9F4A000F03EFE9DF82C00401CC0B293
:103240000B90EF48007D9DF82C108842DEDCAFF239
:10325000CC3000F02FFE83E0AFF2D83000F02AFE31
:103260000BAA03A9204600F029FD9DF82C00C8B93F
:10327000694603A800F0BBFB0B909DF82C0020B919
:10328000E5A0009900F016FE0EE09DF82C00042841
:1032900001D002206BE5E3A000F00CFE0120D8492C
:1032A000C87501E0022062E5DDA000F003FE57E0F2
:1032B000DBA000F0FFFD0BAA03A9204600F0FEFCF6
:1032C0009DF82C00C8B9694603A800F090FB0B904C
:1032D0009DF82C0020B9D8A0009900F0EBFD0EE07D
:1032E0009DF82C00042801D0022040E5D5A000F074
:1032F000E1FD0020C249C87501E0022037E5C8A001
:1033000000F0D8FD2CE0C6A000F0D4FD0BAA03A964
:10331000204600F0D3FC9DF82C00C8B9694603A8EC
:1033200000F065FB0B909DF82C0078B9B44900982B
:1033300081F8EC00084690F8EC0018B1C6A000F047
:10334000B9FD07E0CBA000F0B5FD03E002200EE5DB
:1033500002200CE5B2A000F0ADFD01E0012006E581
:1033600000BF002003E54FF08040008A20F00100FC
:103370004FF0804108824FF6FF70888500208884D6
:103380009F49C1F8F00070474FF08040008A10F06C
:10339000010F08D09A48D0F8F0004FF6FF710844AA
:1033A0009749C1F8F0009648D0F8F0004FF08041FE
:1033B000898C08449249C1F8F0000846D0F8F00022
:1033C000704710B54FF08040008A10F0010F09D00F
:1033D0008B490869804700204FF0804188844FF472
:1033E0007A7088854FF08040008A20F001004FF00D
:1033F0008041088210BD7FB505460C460121084674
:10340000FEF73BFBADF80850ADF804400020ADF8E6
:103410000A00ADF8060001A94FF08040FEF75CFC01
:10342000012241218807FEF7CEFF1C208DF8000005
:1034300003208DF801008DF8020001208DF80300B3
:103440006846FDF78EFF01218807FEF7A1FF7FBDCB
:1034500010B5044604EBC40000EB04100122C2EBDB
:10346000800081B24FF47A70FFF7C5FF01206449F4
:10347000C87510BD30B595B0054613AB12AA09A9A1
:10348000284600F03FFB044614B1204615B030BD7D
:103490000020149026E05A4909689DF8502001EB5D
:1034A000C20113AB11AA486801A900F02BFB044626
:1034B0000CB12046EAE709A901A800F065FA60B955
:1034C0009DF844009DF84810884201DD0220DDE7A8
:1034D0009DF850004A4988750AE09DF85000401C4C
:1034E000C0B214904648007D9DF850108842D2DC4E
:1034F00000BF4348007D9DF85010884201D1042050
:10350000C4E714A9284600F04AFC04460CB1204642
:10351000BCE79DF850003A4948750020B6E72DE910
:10352000F0419AB03648847D007DA04202DC1AB09A
:10353000BDE8F0813249096801EBC40106AB07AA76
:10354000486808A900F0DEFA08A951A000F0B2FC12
:103550000026B7E02A48018B0120B04001421BD071
:1035600022214DA000F0A6FC304600F00BFC2449BF
:1035700024314718394649A000F09CFC222146A07E
:1035800000F098FC304600F0FDFB1D492431084452
:1035900010A941F826008BE0304600F0F3FB1849F3
:1035A0002431085810A941F826001548C07D30B9CB
:1035B00010A850F826103AA000F07CFC78E071E0EA
:1035C0002D2D2D2D2D2D2D2D2D2D2D2D2D2D2D2D2B
:1035D0002D2D2D2D2D2D2D2D2DBAAFCAFD20494479
:1035E000202D2D2D2D2D2D2D2D2D2D2D2D2D2D2D18
:1035F0002D2D2D2D2D2D2D2D2D2D2D2D200D0A0078
:103600008C00002025732069642069733A0D0A300C
:1036100058253038580D0A004845583A3058255832
:103620000D0A00003136BDF8D6C6B2CECAFDCFD4E1
:10363000CABE210D0A0000004445433A256C750DB1
:103640000A0000003130BDF8D6C6B2CECAFDCFD4D4
:10365000CABE210D0A00000052756E2054696D65C6
:103660002043616C63756C6174696F6E204F4E0D01
:103670000A00000052756E2054696D652043616C2C
:1036800063756C6174696F6E204F46460D0A0000C9
:103690000D0A257328000000256300002573000033
:1036A000256C750010A850F8261095A000F002FCBB
:1036B0009DF81C00401EB04202D093A000F0FAFB1F
:1036C000701CC6B29DF81C008642FFF643AF8FA067
:1036D00000F0F0FBFFF747FE8D48407D0B280DD230
:1036E000DFE800F0060D151E27323F4E5F7287009F
:1036F0008749096851F834008047054690E0844ABC
:10370000126852F8341010988847054688E0804BBC
:103710001B6853F83420DDE91001904705467FE02F
:103720007B4F3F6857F8343010A807C898470546C4
:1037300076E0DFF8DCC1DCF800C05CF8347010A87B
:103740000FC8B84705466BE01498DFF8C4C1009075
:10375000DCF800C05CF8347010A80FC8B847054604
:103760005EE0DDE91401DFF8A8C1CDE90001DCF875
:1037700000C05CF8347010A80FC8B84705464FE089
:10378000DDE914121698DFF888C1CDE90012029025
:10379000DCF800C05CF8347010A80FC8B8470546C4
:1037A0003EE0DDE91423DDE91610DFF864C1CDE960
:1037B0000023CDE90210DCF800C05CF8347010A8DA
:1037C0000FC8B84705462BE0DDE91523DDE91710E2
:1037D000CDE90123CDE903101498DFF834C100903E
:1037E000DCF800C05CF8347010A80FC8B847054674
:1037F00016E0DDE9173216991998CDE903320291E6
:103800000590DDE91401DFF808C1CDE90001DCF81D
:1038100000C05CF8347010A80FC8B847054600BF58
:1038200000BFFFF7B1FD9DF8180001280CD1384802
:10383000C07D20B9294637A000F03CFB07E02946AF
:1038400036A000F037FB02E033A000F033FB304835
:1038500090F8EC0088B12E48D0F8F0000A21B0FBB7
:10386000F1F201FB12072A48D0F8F000B0FBF1F8A2
:103870003A4641462CA000F01DFB00BF57E670B54C
:103880003148008810F4004F33D02F4805780020CD
:103890002E4948551E4881682C48884704461CB963
:1038A0001B49C868804721E02848FFF753FA0546BE
:1038B000012D00D02C46CCB1012C06D0022C08D012
:1038C000032C0AD0042C10D10BE021A000F0F2FA56
:1038D0000BE022A000F0EEFA07E023A000F0EAFAE5
:1038E00003E024A000F0E6FA00BF00BF0020164964
:1038F000088070BD0146086870470160704700008D
:1039000030582558000000002C000000290000005D
:103910008C0000203D256C753B0D0A003D3058257C
:10392000583B0D0A0000000046756E6374696F6EA7
:103930002052756E2054696D653A25642E253164D8
:103940006D730D0A000000002C0000208001002093
:10395000BAAFCAFDB4EDCEF3210D0A00B2CECAFD56
:10396000B4EDCEF3210D0A00B2CECAFDCCABB6E069
:10397000210D0A00CEB4D5D2B5BDC6A5C5E4B5C4E7
:10398000BAAFCAFD210D0A0002460AE010780B7892
:10399000984201D001207047107800B902E0521C13
:1039A000491CF3E700BF0020F5E706E002780A7043
:1039B000027802B902E0401C491CF7E700BF7047DB
:1039C0000146002005E00A7802B903E0421CD0B2AB
:1039D000491CF8E700BF704710B50246012000E01F
:1039E00050430B00A1F10104E1B2F9D110BD2DE962
:1039F000F04307460E4600254FF00A083C460020DB
:103A000030601FE02078392802DC207830280ADA7C
:103A10002078462802DC2078412804DA20785828CB
:103A200009D1012D07D12078412801DB4FF0100882
:103A3000681CC5B205E0207800B904E00120BDE8AB
:103A4000F083641CDEE700BF3C46B8F1100F0FD1D5
:103A5000032D01DA0220F2E72078302806D16078C1
:103A6000582803D1A41CA81EC5B204E00320E6E731
:103A70000DB90420E3E71BE00DB1681EC5B2207844
:103A8000392806DC2078302803DB2078A0F13009C3
:103A900002E02078A0F1370929464046FFF79CFF55
:103AA000316809FB00103060641C207800B900E028
:103AB000E2E700BF0020C2E710B504460020107006
:103AC0000BE020780870641C491C1078401C1070B2
:103AD0001078984201DB012010BD2078202802D008
:103AE00020780028EDD10020087000BFF4E70146DF
:103AF000491C00E0491C0878202801D10029F9D18F
:103B0000087870472DE9FF4F85B080468946002729
:103B1000002004900390012002904FF0000B00253C
:103B200044461DE02078202816D005F07F000528A7
:103B300012DA0DB945F0800505F07F00042803D1A5
:103B400020782A2800D00EE0207805F07F010DF8BB
:103B50000100681CC5B202E0852D00D103E0641CA1
:103B600020780028DED100BF8DB1002005F07F0154
:103B70000DF80100CBA16846FFF706FF18B9002138
:103B80000898017002E001210898017000254FF0AB
:103B9000000A444614E0641C0AF1010000F0FF0A28
:103BA0002078202802D020782A2809D12046FFF743
:103BB0009EFF0646282E03D02A2E01D0CDF810A055
:103BC0002078282802D020780028E4D144460498A0
:103BD00010B10498401C04444FF0000A002654E041
:103BE000207810B94FF0010A50E02078282803D13E
:103BF00016B9781CC7B213E02078292808D13EB93D
:103C000017B1781EC7B201E04FF0010A47B93DE095
:103C10002078222804D10EB9012000E000200646B9
:103C200047B9207820282FD0207889F8000009F1A2
:103C3000010929E020782C2804D101200290681C79
:103C4000C5B214E02078202811D0207828280ED082
:103C50004DB9BBF1050F06DA20780DF80B000BF11A
:103C6000010000F0FF0B0298401CC0B20290012F2F
:103C70000AD10298022807D10298401CC0B20290D3
:103C80000398401CC0B20390641CA9E700BF0398CE
:103C9000012809D100200DF80B0082A16846FFF72A
:103CA00073FE08B90020039007990398087000205C
:103CB00089F80000504609B0BDE8F08FF0B5034622
:103CC0001546002000220026002455E01F782C2FE6
:103CD00001D104B901221F78292F01D01F780FB913
:103CE00004B94AE0002E34D11F78302F02DB1F7850
:103CF000392F11DD1F78612F02DB1F78662F0BDD56
:103D00001F78412F02DB1F78462F05DD1F78582FC3
:103D100002D01F78782F0CD102B12EE01F78612FCE
:103D200003DB1F78203F0F7001E01F780F70491CE4
:103D30001FE01F78222F04D102B11EE001260124CA
:103D400017E01F78202F14D01F782C2F11D0FF26BA
:103D500013E01F78222F00D1002402B10DE044B1FE
:103D60001F785C2F02D15B1C471CF8B21F780F70C4
:103D7000491C471CF8B25B1CA8E700BF00270F7066
:103D80002E70F0BD02460020002105E0474B5B5C31
:103D90000344D8B24B1CD9B29142F7DB70472DE9EE
:103DA000F043B5B005460F460024002604E000218C
:103DB0003E488155701CC6B20A2EF8DB06E06D1C29
:103DC000287818B9012035B0BDE8F0832878282874
:103DD000F5D16D1C61E034AA69462846FFF76EFFF5
:103DE000064635449DF8D00020B1012827D0FF2891
:103DF0004CD149E09DF8000000B333A96846FFF7B5
:103E0000F6FD06460EB10220DDE72046FFF7BAFFB9
:103E100026490A31339A0A50A1F12400008B01216E
:103E2000A140884321491A39088304211F480155BC
:103E3000601CC4B20A2C01DD0320C4E726E06846FA
:103E4000FFF7BEFD401C00F0FF082046FFF79AFF79
:103E500016490A3100EB010949466846FFF7A5FDFE
:103E600012481A38018B0120A040014388B20F4943
:103E70001A3908830D4800F80480601CC4B20A2C6B
:103E800001DD03209FE701E002209CE700BF2878C6
:103E9000292801D0287800B900E09CE700BF3C70D9
:103EA000002090E7766F696400000000A600002003
:103EB000704700000FB4044910B503AA029800F03F
:103EC000FDF910BC5DF814FB3000002070B504460D
:103ED00085690068C10601D5302600E02026C007AC
:103EE00008D070BDD4E9012130469047206A00F126
:103EF000010020626D1EF5D570BD70B50446856960
:103F00000078C00708D170BDD4E901212020904776
:103F1000206A00F1010020626D1EF5D570BD70B5FC
:103F20000C460546012A05D02878800600D5EA69A6
:103F3000002302E0012305E05B1C934202D2E05C17
:103F40000028F9D1A869E618C01AA861286A18449F
:103F500028622846FFF7BAFF04E0D5E9012114F8EA
:103F6000010B9047B442F8D32846FFF7C6FF70BD57
:103F70002DE9F0410646002410687529314616A542
:103F800011D0AFF30080002803DAC0F1000013A5C0
:103F900007E031688A0701D511A502E0490704D579
:103FA00010A5012401E0AFF3008000210A2306F1EF
:103FB000240707E0B0FBF3F203FB12003030785423
:103FC0001046491C0028F5D123462A463046BDE854
:103FD000F04100F001B90000000000002D000000D9
:103FE0002B0000002000000070B504460D4621465D
:103FF0001068AFF300802188090502D5104A7A4481
:1040000002E00F4A7A440E32002104F1240307E053
:1040100000F00F064FEA1010965D5E5401F10101A9
:104020000028F5D103462078000704D5702D02D072
:1040300009B1113202232046BDE8704000F0CCB82F
:10404000060600002DE9F05F894604464FF0000A9D
:10405000DFF878B1FB44C0F820A02046E16888472B
:10406000002875D0252806D0D4E901219047206A80
:10407000401C2062F1E700265F462046E168884741
:104080002028054608DB312D06D207EB050010F885
:10409000200C08B10643F0E7B00701D526F004066E
:1040A000C4F81CA00027C4F818A02A2D09D028465F
:1040B00000F062F938B304EB8708303DC8F81850B7
:1040C00019E059F8041B204604EB87029161E1686E
:1040D0008847012F054618D1E069002820DA26F02C
:1040E00020061DE0D8F8180000EB800005EB40002A
:1040F0003038C8F818002046E1688847054600F0C7
:104100003BF90028EED1012F0AD02E2D08D12046F0
:10411000E16888477F1C0546022F46F02006C4DB75
:10412000A069002803DA404246F00106A061F007CA
:1041300001D026F010066C2D0BD0682D09D04C2D27
:1041400039D06A2D35D0742D35D07A2D33D016E084
:1041500038E0E1682F4620468847B842054609D135
:104160006C2F26D04FF48060E168064320468847D4
:10417000054604E06C2F1AD04FF4807006430DB34F
:10418000A5F14100192802D8203546F400664A46B8
:104190002946204626604E46FCF724F880B10128C7
:1041A0000BD0F61D26F0070000F1080955E7402066
:1041B000E4E78020D8E70020D6E706F104094CE7C1
:1041C000284651E7206ABDE8F09F0000D8050000AE
:1041D00070477047704770472DE9F0470D46994684
:1041E0009246044600F124080168880604D5E06977
:1041F00021F01001216000E00120A84202DDA0EBC7
:10420000050700E00027A16907EB050202EB0900A2
:10421000A1EB0000A0612078C00602D42046FFF781
:1042200055FE002608E0D4E901211AF8060090475F
:10423000206A401C761C20624E45F4DB2078C006C4
:104240000AD52046FFF742FE06E0D4E901213020DE
:104250009047206A401C2062381EA7F10107F4DC59
:1042600007E0D4E9012118F805009047206A401CB6
:104270002062281EA5F10105F3DC2046FFF73DFE74
:104280002078000602D50220BDE8F0870120FBE778
:1042900010B5436913B1AFF3008001E0FFF73FFEB3
:1042A000012010BD127800F124010A7000224A702A
:1042B0000122EDE711684FF0FF32E9E7074B70B5D7
:1042C0000D467B4400F011F80446284600F020F823
:1042D00010B14FF0FF3070BD204670BD15CFFFFF0D
:1042E00001694A1C02610878704700B58FB0CDE9BA
:1042F00001310021059105497944CDE903101146AA
:104300006846FFF79FFE0FB000BD0000E5FFFFFF0E
:10431000007B00F080007047754600F029F8AE463B
:1043200005006946534620F00700854618B020B5C1
:10433000FDF700F8BDE820404FF000064FF0000701
:104340004FF000084FF0000B21F00701AC46ACE83D
:10435000C009ACE8C009ACE8C009ACE8C0098D46AA
:1043600070470446AFF300802046FBF759FF00007A
:10437000004870474802002030380A2801D2012046
:1043800070470020704700004FEA41034FEA535343
:10439000A3F58063D3F11E03C8BFD3F1210C0CDD5C
:1043A0004FF0004242EAC12242EA505232FA03FC84
:1043B0008CEAE17CACEBE1707047102BC4BF0020AD
:1043C000704703F5787CBCF1FF3F04D06FF00042EA
:1043D00082EA2100704770B500F0C2F8499224804B
:1043E00000207047F2E7B0FA80F310FA03F10AD028
:1043F000C3F11D0303F580634FEA41504FEA0352B6
:1044000002EBD12170474FF000007047DFF848C140
:1044100070B51CEA111E1EBF1CEA13159EEA0C0F94
:1044200095EA0C0F00F06F8081EA030423EA4C1335
:104430004EEAD47E21EA4C1141F4801143F48013FA
:10444000AE44A1FB024CA0FB0365AEF17F7E3619A2
:1044500055EB0C05A1FB034C4CF10003A0FB021C27
:1044600016EB0C06654153F10003094218BF46F0F4
:10447000010613F4007F0BD14FEA03314FEA0530F8
:10448000340341EA155140EA16506FF003020AE086
:104490004FEAC3214FEAC520F40241EA555140EAF0
:1044A00056506FF0020202EB2E4201EB025585EAF4
:1044B000CE710AD05FEA440C18BF24F0004450F1DA
:1044C000000041F1000120EAD47040F2FE7C624518
:1044D00000D270BDA84214BF4FF080444FF040445A
:1044E000002E08BF0024BEF1806FA8BFA1F1C0411B
:1044F000BDE8704080F282804FF0000001F1C041C1
:1045000001F0004170479EEA0C0F0CEA131518BF2A
:1045100095EA0C0F06D04FF0000081EA030E0EF072
:10452000004170BD00F01CF88900013E00F007B8A2
:1045300000F009B84FEA430C5FEA5C5C08D081EAFE
:10454000030100F05BB84FEA410C5FEA5C5CF6D116
:104550004FF00000014970470000FF070000F87F9E
:104560000EF1020E2EF0030E5EF8046B364205D4F7
:10457000012A43EB030515F5001F12D8012841EB72
:10458000010C1CF5001F0CD80ED14FEAD17C15F59B
:10459000001F0CEB4C0C0CF1020C08BF4CEBD37C55
:1045A00004E04FF0080C01E04FEAD37C0CEB4C0523
:1045B00026FA05F606F00706B6F1040C06D20EEB55
:1045C000860CBDE870404CF0010C6047DFE80CF051
:1045D000090B02024FF000414FF00000A1F500214D
:1045E00070BD19461046012851EB010418BFD4F5DF
:1045F000001484BF002001F0004170BD0808A0F540
:1046000000114FEA310170473031323334353637DB
:104610003839414243444546403058003031323306
:104620003435363738396162636465664030780006
:10463000040000080000000000000002000100006B
:10464000103F006465630069640072756E74696D83
:10465000650068656C70006C69737400686578004B
:104660004453333233315F536574287531362079C2
:1046700065612C7538206D6F6E2C75382064612C47
:10468000753820686F752C7538206D696E2C7538FB
:10469000207365632900766F696420777269746599
:1046A0005F616464722875333220616464722C75B2
:1046B00033322076616C2900753332207265616473
:1046C0005F6164647228753332206164647229000A
:1046D000766F69642064656C61795F6D73287531EC
:1046E00036206E6D732900766F69642064656C6195
:1046F000795F757328753332206E75732900000059
:104700002047000800000020800100006C01000824
:10471000904700088001002028070000C801000819
:104720001184A24A0400131A0102030406070809AF
:1047300030313233343536373839292C6930170265
:1047400004060841461B0852041A57041A47041A63
:104750005C041A43041A4A0413F5381B08B8081AF3
:10476000FB081A9608137D111B08D0081A37081A7F
:10477000E70813590C1B0860082264142051341BED
:10478000087504131F351B087F301A056B01DC0008
:0400000508000131BD
:00000001FF
